{
  "contractName": "Election",
  "abi": [
    {
      "inputs": [],
      "stateMutability": "nonpayable",
      "type": "constructor"
    },
    {
      "anonymous": false,
      "inputs": [
        {
          "indexed": true,
          "internalType": "uint8",
          "name": "_candidateId",
          "type": "uint8"
        }
      ],
      "name": "votedEvent",
      "type": "event"
    },
    {
      "inputs": [
        {
          "internalType": "uint8",
          "name": "",
          "type": "uint8"
        }
      ],
      "name": "candidates",
      "outputs": [
        {
          "internalType": "uint8",
          "name": "id",
          "type": "uint8"
        },
        {
          "internalType": "string",
          "name": "name",
          "type": "string"
        },
        {
          "internalType": "uint32",
          "name": "voteCount",
          "type": "uint32"
        }
      ],
      "stateMutability": "view",
      "type": "function",
      "constant": true
    },
    {
      "inputs": [],
      "name": "candidatesCount",
      "outputs": [
        {
          "internalType": "uint8",
          "name": "",
          "type": "uint8"
        }
      ],
      "stateMutability": "view",
      "type": "function",
      "constant": true
    },
    {
      "inputs": [
        {
          "internalType": "address",
          "name": "",
          "type": "address"
        }
      ],
      "name": "voters",
      "outputs": [
        {
          "internalType": "bool",
          "name": "",
          "type": "bool"
        }
      ],
      "stateMutability": "view",
      "type": "function",
      "constant": true
    },
    {
      "inputs": [
        {
          "internalType": "uint8",
          "name": "_candidateId",
          "type": "uint8"
        }
      ],
      "name": "vote",
      "outputs": [],
      "stateMutability": "nonpayable",
      "type": "function"
    }
  ],
  "bytecode": "0x608060405234801561001057600080fd5b506100556040518060400160405280600c81526020017f43616e646964617465202331000000000000000000000000000000000000000081525061009e60201b60201c565b6100996040518060400160405280600c81526020017f43616e646964617465202332000000000000000000000000000000000000000081525061009e60201b60201c565b610307565b6002600081819054906101000a900460ff16809291906100bd9061027c565b91906101000a81548160ff021916908360ff160217905550506040518060600160405280600260009054906101000a900460ff1660ff168152602001828152602001600063ffffffff1681525060016000600260009054906101000a900460ff1660ff1660ff16815260200190815260200160002060008201518160000160006101000a81548160ff021916908360ff160217905550602082015181600101908051906020019061016f92919061019d565b5060408201518160020160006101000a81548163ffffffff021916908363ffffffff16021790555090505050565b8280546101a9906102d5565b90600052602060002090601f0160209004810192826101cb5760008555610212565b82601f106101e457805160ff1916838001178555610212565b82800160010185558215610212579182015b828111156102115782518255916020019190600101906101f6565b5b50905061021f9190610223565b5090565b5b8082111561023c576000816000905550600101610224565b5090565b7f4e487b7100000000000000000000000000000000000000000000000000000000600052601160045260246000fd5b600060ff82169050919050565b60006102878261026f565b915060ff82141561029b5761029a610240565b5b600182019050919050565b7f4e487b7100000000000000000000000000000000000000000000000000000000600052602260045260246000fd5b600060028204905060018216806102ed57607f821691505b60208210811415610301576103006102a6565b5b50919050565b61069a806103166000396000f3fe608060405234801561001057600080fd5b506004361061004c5760003560e01c80632d35a8a2146100515780636d6277f41461006f578063a3ec138d146100a1578063b3f98adc146100d1575b600080fd5b6100596100ed565b6040516100669190610377565b60405180910390f35b610089600480360381019061008491906103c3565b610100565b604051610098939291906104a8565b60405180910390f35b6100bb60048036038101906100b69190610544565b6101cf565b6040516100c8919061058c565b60405180910390f35b6100eb60048036038101906100e691906103c3565b6101ef565b005b600260009054906101000a900460ff1681565b60016020528060005260406000206000915090508060000160009054906101000a900460ff1690806001018054610136906105d6565b80601f0160208091040260200160405190810160405280929190818152602001828054610162906105d6565b80156101af5780601f10610184576101008083540402835291602001916101af565b820191906000526020600020905b81548152906001019060200180831161019257829003601f168201915b5050505050908060020160009054906101000a900463ffffffff16905083565b60006020528060005260406000206000915054906101000a900460ff1681565b6000803373ffffffffffffffffffffffffffffffffffffffff1673ffffffffffffffffffffffffffffffffffffffff16815260200190815260200160002060009054906101000a900460ff161561024557600080fd5b60008160ff1611801561026d5750600260009054906101000a900460ff1660ff168160ff1611155b61027657600080fd5b60016000803373ffffffffffffffffffffffffffffffffffffffff1673ffffffffffffffffffffffffffffffffffffffff16815260200190815260200160002060006101000a81548160ff021916908315150217905550600160008260ff1660ff168152602001908152602001600020600201600081819054906101000a900463ffffffff168092919061030990610637565b91906101000a81548163ffffffff021916908363ffffffff160217905550508060ff167f299531cb58f85d08a44ed9485a55a7326c4383ec19cddcff4ff126cf2779600e60405160405180910390a250565b600060ff82169050919050565b6103718161035b565b82525050565b600060208201905061038c6000830184610368565b92915050565b600080fd5b6103a08161035b565b81146103ab57600080fd5b50565b6000813590506103bd81610397565b92915050565b6000602082840312156103d9576103d8610392565b5b60006103e7848285016103ae565b91505092915050565b600081519050919050565b600082825260208201905092915050565b60005b8381101561042a57808201518184015260208101905061040f565b83811115610439576000848401525b50505050565b6000601f19601f8301169050919050565b600061045b826103f0565b61046581856103fb565b935061047581856020860161040c565b61047e8161043f565b840191505092915050565b600063ffffffff82169050919050565b6104a281610489565b82525050565b60006060820190506104bd6000830186610368565b81810360208301526104cf8185610450565b90506104de6040830184610499565b949350505050565b600073ffffffffffffffffffffffffffffffffffffffff82169050919050565b6000610511826104e6565b9050919050565b61052181610506565b811461052c57600080fd5b50565b60008135905061053e81610518565b92915050565b60006020828403121561055a57610559610392565b5b60006105688482850161052f565b91505092915050565b60008115159050919050565b61058681610571565b82525050565b60006020820190506105a1600083018461057d565b92915050565b7f4e487b7100000000000000000000000000000000000000000000000000000000600052602260045260246000fd5b600060028204905060018216806105ee57607f821691505b60208210811415610602576106016105a7565b5b50919050565b7f4e487b7100000000000000000000000000000000000000000000000000000000600052601160045260246000fd5b600061064282610489565b915063ffffffff82141561065957610658610608565b5b60018201905091905056fea26469706673582212200c394ccfbcaf13952e9ed92e342ba3b1cbed172f0a8531acda800e6a1584193564736f6c634300080b0033",
  "immutableReferences": {},
  "source": "// SPDX-License-Identifier: MIT\npragma solidity >=0.4.22 <0.9.0;\n\ncontract Election {\n    // Model a candidate\n    struct Candidate {\n        uint8 id;\n        string name;\n        uint32 voteCount;\n    }\n\n    // store accounts that have voted (the mapping takes an address and returns a boolean)\n    mapping(address => bool) public voters;\n    // Store candidates (to be developed)\n    // Fetch candidate (the mapping takes an integer which is candidate Id here and returns Candidate)\n    mapping(uint8 => Candidate) public candidates;\n\n    // Store candidates count\n    uint8 public candidatesCount;\n\n    // voted event\n    event votedEvent(uint8 indexed _candidateId);\n\n    // Constructor\n    constructor() {\n        addCandidate(\"Candidate #1\");\n        addCandidate(\"Candidate #2\");\n    }\n\n    /* \n        we use private because we would only use it in constructor and smart contract itself \n        and we wouldn't let any other external accounts to access it\n    */\n    function addCandidate(string memory _name) private {\n        candidatesCount++;\n        candidates[candidatesCount] = Candidate(candidatesCount, _name, 0);\n    }\n\n    /* \n        as opposite of above, we have set this function to public so that any external account\n        can access it\n    */\n    function vote(uint8 _candidateId) public {\n        // check if they haven't voted before (\"require\" hinders the code from execution if the condition is false)\n        require(!voters[msg.sender]);\n\n        // chech if candidate is valid\n        require(_candidateId > 0 && _candidateId <= candidatesCount);\n\n        // record the address of that voter has voted\n        voters[msg.sender] = true;\n\n        // update candidate voteCount\n        candidates[_candidateId].voteCount++;\n\n        // trigger voted event\n        emit votedEvent(_candidateId);\n    }\n}\n",
  "sourcePath": "/Users/tangzhiming/decentralized_election/contracts/Election.sol",
  "compiler": {
    "name": "solc",
    "version": "0.8.11+commit.d7f03943.Emscripten.clang"
  },
  "schemaVersion": "3.4.4",
  "updatedAt": "2022-02-17T09:37:20.237Z",
  "networkType": "ethereum",
  "devdoc": {
    "kind": "dev",
    "methods": {},
    "version": 1
  },
  "userdoc": {
    "kind": "user",
    "methods": {},
    "version": 1
  }
}